:100000000C9455020C9472020C9472020C947202BD
:100010000C9472020C9472020C9472020C94720290
:100020000C9472020C9472020C94E7190C94A319AC
:100030000C94E41A0C9472020C9472020C947202E6
:100040000C9472020C9472020C9472020C94720260
:100050000C9472020C94C01A0C9472020C947202EA
:100060000C9472020C9472020C9472020C94720240
:100070000C9472020C9472020C9472020C94720230
:100080000C9472020C9472020C9472020C94720220
:100090000C9472020C9472020C9472020C94720210
:1000A0000C9472020C9472020C9472020501090203
:1000B000A10185020901A1000509190129081500FE
:1000C0002501950875018102050109300931158165
:1000D000257F95027508810609381581257F9501D0
:1000E00075088106050C0A38021581257F95017572
:1000F000088106C0C005010980A101850319012AF4
:10010000B700150126B700950175108100C0050CD8
:100110000901A101850419012AA002150126A002E6
:10012000950175108100C005010906A1018506052C
:100130000719E029E71500250195087501810205D9
:1001400007190029EF1500250195F07501810205B9
:10015000081901290595057501910295017503910D
:1001600001C00660FF0961A1010962150026FF00B8
:100170009520750881020963150026FF00952075FA
:10018000089102C005010906A101050719E029E748
:1001900015002501950875018102950175088101F9
:1001A0000507190029FF150026FF0095067508812F
:1001B000000508190129059505750191029501753C
:1001C000039101C0000000000000000000000000DA
:1001D000000000000000000000000000000000001F
:1001E00000000000000000007E0F00D4FFFFFFC7EA
:1001F0000000007800000000000000002A2B28000A
:1002000000000000000000000000000000000029C5
:10021000000000002C1E3420212224342627252E05
:10022000362D3738271E1F2021222324252633333D
:10023000362E37381F0405060708090A0B0C0D0E69
:100240000F101112131415161718191A1B1C1D2F35
:100250003130232D350405060708090A0B0C0D0E55
:100260000F101112131415161718191A1B1C1D2F15
:100270003130354C2B0014001A000800150017000F
:100280001C0018000C0012001300290004001600C6
:10029000070009000A000B000D000E000F003300DC
:1002A000E1001D001B0019000500110010003600C0
:1002B000370038000000E000E200E300105F0600B5
:1002C0002C0000002C000000115F50000000000016
:1002D0000000000035021E021F022002210222023D
:1002E000230224022502260227024C003A003B008A
:1002F0003C003D003E003F002D022E022F02300246
:100300000100400041004300440045003202640205
:100310004A004D00010001000100010001004200FF
:1003200001000000010000000100AB00000000001F
:100330000000000035001E001F00200021002200E8
:10034000230024002500260027004C003A003B0033
:100350003C003D003E003F002D002E002F003000ED
:1003600001004000410043004400450032006400A9
:100370004B004E000100010001000100010042009D
:1003800001000000010000000100AB0000000000BF
:10039000000000000100005C015C010001000100A0
:1003A0000100010001000100010001000100010045
:1003B0000100010001000100010001000100010035
:1003C0000100010001000100010001000100010025
:1003D0000100010001000100010001000100010015
:1003E0000100000001000000010001000000000009
:1003F0000000000009025B00030100A0FA090400EC
:100400000001030101000921110100012240000740
:10041000058103080001090401000203000000092E
:10042000211101000122220007058203200001079B
:100430000503032000010904020001030000000974
:10044000211101000122B6000705840320000112DA
:10045000010002000000086060606001000102000D
:10046000010E036200610074006F00690064000007
:100470000032034B006F0074007400650043006F8E
:10048000006D007000750074006500720045006C1E
:100490000065006300740072006F006E0069006305
:1004A0000073000000040309040011241FBECFEFF5
:1004B000DAE0DEBFCDBF11E0A0E0B1E0ECE7F2E4AE
:1004C00002C005900D92A036B107D9F722E0A0E650
:1004D000B1E001C01D92A63AB207E1F70E940B1BE2
:1004E0000C940C210C940000E8EDF0E080818E7FEC
:1004F00080831092E2001092DA001092E100A0EEE8
:10050000B0E08C9181608C9380818F77808319BC5F
:10051000A7EDB0E08C918E7F8C9380818F7E80835D
:100520001092730208952091E4003091E50095E661
:10053000A9012091EC00822F817020FF06C08091DC
:10054000E80080FF06C080E008952091E80022FDC9
:100550001AC080919802882389F0853089F08091B3
:10056000EB0085FD0FC02091E4003091E5004217BB
:100570005307F9F29150E1F684E0089582E008957E
:1005800083E0089581E00895EF92FF920F931F9307
:10059000CF937C018B010E949302C82F811117C059
:1005A0008091E80085FD0BC08091E8008E778093F4
:1005B000E8000E949302882399F3C82F08C0F7012E
:1005C00081917F018093F1000150110949F78C2F2F
:1005D000CF911F910F91FF90EF90089580919A0213
:1005E00087FF13C08091E80082FF06C08091E80079
:1005F0008B778093E80004C0809198028111F2CF3C
:100600000895809198028823D9F38091E80080FFB3
:10061000F8CF8091E8008E77ECCF982F9093E90087
:10062000242F762F50E0891731F07091EC00209143
:10063000ED005091F00021FD07C09F5F973071F7EA
:100640008093E90081E008953091EB003E7F309384
:10065000EB003091ED003D7F3093ED003091EB00E9
:1006600031603093EB007093EC002093ED005093D9
:10067000F0002091EE0027FDE0CF80E00895B0E08B
:10068000A0E0E5E4F3E00C946D20C8EDD0E08881B3
:100690008F7E8883E7EDF0E080818160808384E055
:1006A00082BF81E08093730288818E7F888302EE0F
:1006B00010E0F80110821092DA0081EEC82ED12CE1
:1006C000F601108288818F7788838881806888838B
:1006D00088818F7D888319BC1092980210929902AC
:1006E000109297021092960290EEE92EF12CF701EB
:1006F00080818B7F808388818160888342E060E095
:1007000080E00E940D03F60180818E7F8083F801D6
:10071000808181608083808188608083F70180810F
:100720008E7F8083888180618883CDB7DEB7E8E0E3
:100730000C948920FC018091A0029091A10286175F
:100740009707A0F06115710529F49091E8009E7754
:100750009093E80090E06115710551F4911108C083
:100760008091E80082FF34C080E00895BC01F2CFA0
:10077000809198028823C1F18530C1F18091E80011
:1007800083FD30C08091E80082FDEACF8091E800CF
:1007900080FFE1CF8091F3002091F200382F6115A6
:1007A000710519F02830310558F091E028303105F5
:1007B00009F090E02091E8002E772093E800CBCF5D
:1007C00081918093F100615071092F5F3F4FE7CF16
:1007D00080919802882341F0853041F08091E800B3
:1007E00083FFBECF81E0089582E0089583E00895FD
:1007F000089580917502089587E797E7909301081F
:100800008093000888E19AE00FB6F894A895809349
:1008100060000FBE90936000FFCF9C014FB7F8942B
:1008200080916A0290916B02A0916C02B0916D026E
:100830004FBF821B930B08952FB7F89460916A0203
:1008400070916B0280916C0290916D022FBF0895A0
:100850002FB7F89480916A0290916B02A0916C027C
:10086000B0916D022FBF0895209167023091680208
:100870002817390771F09093680280936702E0911E
:100880006502F0916602309721F00084F185E02D39
:100890000995089520916302309164022817390761
:1008A00071F09093640280936302E0916502F0918D
:1008B0006602309721F00680F781E02D09950895B2
:1008C000E0916502F0916602309729F00190F08185
:1008D000E02D0995089580E008950E9428049C0168
:1008E00090915F0280916002982B21F030935C021E
:1008F00020935B029091610280916202982B21F01B
:1009000030935A0220935902E0916502F0916602F9
:10091000309749F082E080935D020480F581E02DFC
:100920008DE592E00995089540915F02803F59F46A
:100930008091600287FF0DC01092600241110BC0D0
:100940001092570208C0813F81F48091600218160E
:100950009CF3442381F08091610290916202892B83
:1009600009F05AC0109256020895823F49F447FF99
:10097000F0CF10925F02809160028111ECCFE0CF46
:10098000833F19F41416ACF3E4CF90916102893FD0
:1009900029F41916F4F610926102DBCF8A3F19F49C
:1009A00097FFD7CFF8CF909162028B3F29F497FF42
:1009B000D0CF10926202CDCF8C3F19F41916CCF330
:1009C000C8CF9CE0980F953090F4845F990B21E09C
:1009D00030E0B90102C0660F771F8A95E2F7CB01BC
:1009E000809590915E02892380935E02B2CF8D3F05
:1009F00031F4809158028E7F80935802AACF8E3FA7
:100A000021F4809158028D7FF7CF8F3F09F0A1CF5D
:100A1000809158028B7FF0CF08958091580280FD1D
:100A200016C081FD16C082FD16C080915602882333
:100A3000A1F0883280F428E0829FC001112468E28E
:100A400070E00E94EE1F862F672B39F0089582E038
:100A5000089584E0089588E0089581E008958091E4
:100A6000580280FD14C081FD14C082FD16C0809123
:100A70005702882381F08E3180F420E5829FC001E7
:100A800011246EE170E00E94EE1F862F089584E12C
:100A9000089588E2089588E0089580E50895803FEC
:100AA00031F40E942F058195809360020895813F63
:100AB00019F40E942F05F8CF823F31F40E942F05D0
:100AC000819580935F020895833F19F40E942F055A
:100AD000F8CF893F29F40E940D05809361020895A3
:100AE0008A3F21F40E940D058195F7CF8B3F31F4A9
:100AF0000E940D0581958093620208958C3F19F440
:100B00000E940D05F8CF9CE0980F953070F4845F3B
:100B1000990B21E030E001C0220F8A95EAF780911D
:100B20005E02822B80935E0208958D3F31F48091A6
:100B3000580281608093580208958E3F21F480917D
:100B400058028260F7CF8F3FB9F7809158028460D6
:100B5000F1CF80E00895F894E82FE295EF70F0E08F
:100B600031A1282F2F7081E090E001C0880F2A95D5
:100B7000EAF7982F9095932391A392A1892B82A3B2
:100B80007894089590916E0292FF06C0282F2871E4
:100B90002830F9F4877F846093FF06C0282F2871DE
:100BA0002831F1F4877E846120916F0220FF06C016
:100BB000382F38713830D9F4877F816021FF06C023
:100BC000282F28712831D1F4877E816194FD877E9A
:100BD0000895282F24712430F9F68B7F8860DCCFAC
:100BE000282F2471243101F78B7E8861DDCF382FC7
:100BF0003171313019F78E7F8860E0CF282F217155
:100C0000213121F78E7E8861E1CFCF93DF93EC0114
:100C100082389105B1F108F040C08133910509F4A3
:100C20009DC048F58932910509F48DC08A9709F471
:100C30009CC0C11521E5D20708F0C3C0C11530E53D
:100C4000D30708F01EC1C83ED10508F0A3C0C13EBD
:100C5000D10588F5C83AD10508F08EC0C53AD1054E
:100C600008F007C1C130D10531F1209721F1C4301E
:100C7000D10508F545C08533910509F45FC0C997D2
:100C8000C1F680916E02837009F043C180916F02BA
:100C900083FF11C0C9E2D0E00EC0833E910599F1F7
:100CA00070F4803E910501F1823E910511F680912C
:100CB0006E0282FD21C0CE01DF91CF910895863E64
:100CC000910561F1873E910571F1843E910509F02E
:100CD000B0CF80916F0281FFEECF80916E02C7EEA0
:100CE000D0E084FD0DC0E7CF80916E0280FD33C05F
:100CF00090916F0290FFDFCFC3EED0E084FFDBCF97
:100D0000D0E0C0E0D8CF80916E0282FDFFC090910C
:100D10006F0290FDFEC084FFCECFF2CF80916E02B5
:100D200083FDDDCFC8CF80916E0283FDF5C0909129
:100D30006F0291FFF0CFC4EED0E0BDCF80916E0284
:100D400085FFB9CFA7CF80916E0285FDE8C0809165
:100D50006F0283FFB0CFC9E3D0E0ADCF80916E02C8
:100D600086FFA9CFCAE2D0E0A6CF80916E0286FFAF
:100D7000A2CFC1E3D0E09FCFCF3BD10508F6C85A40
:100D8000D0E0CC0FDD1FCE5EDE4F0990D881C02DA4
:100D9000D46491CFC11540E2D40758F4C11581E065
:100DA000D80708F088CFC03FD10508F4A9CFD06597
:100DB00082CFC11520E4D20708F4A2CFDF70D06A39
:100DC0007ACFC11535E5D30718F5C11544E5D40729
:100DD00008F084C0C11583E5D80708F06BC0C115C1
:100DE00022E5D20708F461C0CE018370992721E083
:100DF00030E002C0220F331F8A95E2F7C695C695F0
:100E000080E2C89FE0011124C22BD32BDC6853CFB2
:100E1000C11539E5D307A8F4C11548E5D40708F092
:100E200062C0C11586E5D80708F06ACF8C2F0E94F2
:100E3000C205C82FD0E0DC2FCC27CC27DF71D062D1
:100E40003ACFC1152AE5D20708F452C0CE01905618
:100E50008115904208F054CF8D2F8F710E94C205EA
:100E600090E0982F882788279F719C012C2BE901FF
:100E7000E6CFC55AD0E0C15FDE4FC881D0E0D06474
:100E80001ACFCE018370992721E030E002C0220FF3
:100E9000331F8A95E2F7C695C69540E2C49FE001EC
:100EA0001124C22BD32BDD6806CFDC2FCC27C16FDA
:100EB000D06A01CFCE018370992721E030E002C0D3
:100EC000220F331F8A95E2F7C695C69540E2C49F6C
:100ED000E0011124C22BD32BDA68EDCEDC2FCC2716
:100EE000C46FD06AE8CEDC2FCC27C06FD06AE3CEC7
:100EF0008C2F8F700E94C20534E0D695C7953A9525
:100F0000E1F7CF709C2FEC01D069D5CEC2EED0E0D6
:100F1000D2CEC0EED0E0CFCEC6EED0E0CCCEC5E390
:100F2000D0E0C9CE8091F00181111092F0010895B6
:100F300080959091EF0198239093EF0108959091FF
:100F40000E019923D1F090916E0297FF16C0E82F01
:100F5000E695E695E695EE31E0F4F0E0EE59FE4FC9
:100F6000282F277081E090E001C0880F2A95EAF7CA
:100F700080959281892382830895E4E6F1E091913E
:100F8000891303C0DF0111971C9291E0EA36F9073B
:100F9000B1F7089590910E019923C1F090916E02DE
:100FA00097FF14C0E82FE695E695E695EE31F8F444
:100FB000F0E0EE59FE4F877021E030E001C0220FD3
:100FC0008A95EAF78281822B82830895A4E6B1E0B4
:100FD000EFEF90E02D91821751F0EF3F19F42111BE
:100FE00001C0E92F9F5F9630A9F7EF3F09F40895FC
:100FF0000E2E000CFF0BEE59FE4FE6CF8091CC0178
:1010000090919B01981301C008958F5F8770FACF6C
:10101000292F943078F58C3068F590E03CE0239FE0
:10102000800D911D1124682F677023E09695879598
:101030002A95E1F7FC01EE0FFF1FE80FF91FED57AE
:10104000FE4F50E040E080E0219130E0062E02C0EB
:10105000369527950A94E2F721703327042E01C0B4
:10106000220F0A94EAF7822B4F5F5F4F43305105FE
:1010700059F7089580E00895292F943098F58C3021
:1010800088F590E03CE0239F800D911D1124282FCE
:10109000277041E001C0440F2A95EAF723E09695B6
:1010A00087952A95E1F7FC01EE0FFF1FE80FF91F66
:1010B000ED57FE4F30E020E070E05191DF011197D5
:1010C000CB01022E02C0969587950A94E2F78170B3
:1010D00081958527842385278C932F5F3F4F23306D
:1010E000310559F708955B985A9A089580937002D4
:1010F0007093720260937102809198028430F9F4C7
:101100008093E9008FEF9091E800815095FD06C033
:1011100095ED9A95F1F700008111F5CF8091E800E7
:1011200085FF0DC050E040E063E070E080E792E0B2
:101130000E94C4028091E8008E778093E8000895B1
:10114000BC0184E00E9476080895BC0183E00E94FF
:10115000760808959C0184E08093E9009FEF8091D8
:10116000E800915085FD06C085ED8A95F1F70000F5
:101170009111F5CF8091E80085FF0CC050E040E070
:1011800066E070E0C9010E94C4028091E8008E7799
:101190008093E8000895CF93DF93EC0180910E01D6
:1011A0008823B1F180916E0287FF32C060E284E053
:1011B0008093E9008FEF9091E800815095FD06C083
:1011C00095ED9A95F1F700008111F5CF8091E80037
:1011D00085FF1BC080910E0170E050E040E081115E
:1011E00004C050E040E068E070E0CE010E94C4021C
:1011F0008091E8008E778093E80080E2FE01A6E708
:10120000B2E001900D928A95E1F7DF91CF910895B8
:1012100068E081E0CDCFCF93DF93C7EAD1E060E013
:10122000CE010E94CB202196C11584E0D807B9F7E2
:10123000DF91CF9108951F93CF93DF93122F8430C6
:10124000E0F46430D0F44C30C0F4C42FD0E0CC0FC4
:10125000DD1F98E1699FC00DD11D112490E6899F83
:10126000C00DD11D1124632FCE0187960E94CB2083
:10127000612FCE0188960E94CB20DF91CF911F91E4
:101280000895AF92BF92CF92DF92EF92FF921F9399
:10129000CF93DF9384E7C82E82E0D82ED0E076018A
:1012A000C0E014C0F50125913491412F6C2F8D2F92
:1012B0000E941B0982E0A80EB11C1F5F1C3091F731
:1012C00088E1E80EF11CCF5FC43019F0570110E03F
:1012D000E9CFDF5F80E6C80ED11CD43001F7DF9183
:1012E000CF911F91FF90EF90DF90CF90BF90AF9084
:1012F0000895CF93C82F6FEF811163E283E290E0EE
:101300000E94CB206FEFC11166E084E290E00E9462
:10131000CB206FEFC11162E085E290E00E94CB200C
:10132000CF91089580E00E94790960E086E290E024
:101330000E94CB200E9441090E940B0981E00E947B
:10134000790908950F931F93CF93DF93843030F57D
:10135000643020F54C3010F5C42FD0E0CC0FDD1FE9
:1013600028E1629FC00DD11D112430E6839FC00D7E
:10137000D11D1124CE0187960E94BD20082F10E0B8
:10138000102F0027CE0188960E94BD209801282B9F
:10139000C901DF91CF911F910F91089590E080E0F6
:1013A000F8CF462F843040F4743030F46C3020F4A1
:1013B000672F0E94A209089590E080E00895CF92DF
:1013C000DF92FF920F931F93CF93DF936C010091F5
:1013D000A5028091F101082BC7E0D0E010E0FC2EBF
:1013E000C8010C2E02C0959587950A94E2F780FDFE
:1013F0000CC02197A0F7F12C8F2DDF91CF911F9179
:101400000F91FF90DF90CF900895B6018C2F0E942E
:10141000D1090E940506019761F3EECFCF93DF93C8
:10142000EC010E94DF09BE010E94D1090E9405065D
:10143000DF91CF910895FC0183819481892B29F05C
:101440008081918189238F3F51F480E00895843F0A
:10145000E1F717C0883EA8F0813FB9F712C080813C
:1014600091810E940E0A92959F70963099F358F4DC
:10147000925F9F70923048F7803F19F040F7883EA6
:1014800020F781E008959A5FF4CF83E290E00E9414
:10149000BD20833289F484E290E00E94BD20863032
:1014A00059F485E290E00E94BD2091E0823009F07D
:1014B00090E0892F8170089580E0FCCFCF9384E085
:1014C00090E00E94BD20C82F82E290E00E94BD20E3
:1014D000982F8C2FCF9108958091EF019091EE017C
:1014E000892B809362019091F0019923A1F0892BBF
:1014F0008093620180910E018823E1F180916E0258
:1015000087FF38C08EE1E4E6F1E090E08150A0F57D
:1015100091110E94920740E250E06EEC71E082E689
:1015200091E00E94FF20892B21F180E2E2E6F1E0C8
:10153000AEECB1E001900D928A95E1F7E091650281
:10154000F09166023097A9F080910E01882359F03E
:1015500080916E0287FF07C08091620180936301D2
:1015600086E0809362010280F381E02D82E691E0C3
:101570000995089586E0C7CF2191222339F29F5F14
:10158000C5CF90E080E00E944A0490E080E00E9495
:1015900034041092EE010E946C0A86E0EDE5F2E060
:1015A000DF011D928A95E9F71092570210925602B8
:1015B000109258020E946D0408958093A5020E9423
:1015C000C10A08958091A502982F9670963021F453
:1015D00088600E94DD0A0895877FFBCF21E030E01C
:1015E00001C0220F8A95EAF720958091A5028223F7
:1015F0000E94DD0A08959091CD0180958923809302
:10160000CD01282F277091F4282F082E000C330BC2
:101610009217130659F090916F0292FF07C08595BB
:10162000859585950E94EE0A1092CD010895CF937D
:10163000C0916F02C2FB992790F9981791F080FB37
:10164000C2F9C0936F0260916E0284E090E00E9444
:10165000CB206C2F82E290E00E94CB2082E00E949F
:10166000FB0ACF91089521E030E001C0220F8A9556
:10167000EAF78091A502822B0E94DD0A08958093EB
:10168000F1010E94C10A0895882321F00E94980761
:101690000E946C0A0895882339F09091EF01982BED
:1016A0009093EF010E946C0A0895882309F455C0B5
:1016B000823879F40E94600481FF4FC089E30E9460
:1016C000CA070E946C0A89E30E949F070E946C0A65
:1016D0000895833859F40E94600480FF3EC083E57A
:1016E0000E94CA070E946C0A83E5EECF843859F441
:1016F0000E94600482FF31C087E40E94CA070E94F2
:101700006C0A87E4E1CF9CEF980F913AE8F290E2FF
:10171000980F983050F4877091E001C0990F8A9526
:10172000EAF7892F0E949807D1CF9BE5980F933055
:1017300028F490E080E00E944A04089598E5980F0C
:10174000973128F490E080E00E9434040895803FAF
:1017500020F00E9494040E946D040895CF93C82F36
:101760008823C9F08238C9F40E94600481FD13C047
:1017700089E30E94CA070E946C0A2FEF87EE93E06C
:10178000215080409040E1F700C0000089E30E94B2
:101790009F070E946C0ACF9108958338A1F40E949C
:1017A000600480FDF8CF83E50E94CA070E946C0A9E
:1017B0002FEF81EE94E0215080409040E1F700C08F
:1017C000000083E5E4CF8438A1F40E94600482FD28
:1017D000E2CF87E40E94CA070E946C0A2FEF81EED5
:1017E00094E0215080409040E1F700C0000087E481
:1017F000CECF8CEF8C0F813A88F580910E01882333
:1018000001F180916E0287FF1CC0EC2FE695E695F2
:10181000E695F0E0EE59FE4F828190E04C2F477044
:1018200021E030E002C0220F331F4A95E2F7822305
:101830009323892B79F08C2F0E949F070E946C0ABA
:1018400009C0E4E6F1E08191C817A9F321E0EA3686
:10185000F207C9F78C2F0E94CA079BCF80E28C0F3A
:10186000883068F4C77021E030E001C0220FCA95CB
:10187000EAF78091EF01822B8093EF018ACFEBE5AD
:10188000EC0FE33040F4F0E0E15FFE4F808190E048
:101890000E944A0480CFE8E5EC0FE73150F4F0E015
:1018A000EE0FFF1FEE5EFE4F808191810E94340497
:1018B00072CFC03F08F46FCF8C2F0E944F050E945B
:1018C0006D0469CF1F93CF93DF93182FD0E0C0E052
:1018D000893311F4C0E5D0E0812F0E94AE0B209730
:1018E00039F4812F0E94550BDF91CF911F910895FC
:1018F0008FE99FE00197F1F700C000002197EFCF3B
:101900000F931F93CF93DF93C62FD42F022FFC0189
:1019100082818823A9F06093A4020E9428049093F6
:10192000A3028093A202C77081E001C0880FCA950C
:10193000EAF70E944B0BDF91CF911F910F91089511
:101940008091A402681332C08091A2029091A302F8
:101950000E940D04883C910548F510E21D0FCD173B
:10196000B9F080E28C0F883040F4C77081E001C08C
:10197000880FCA95EAF70E94440B183048F481E0BA
:101980009D2F977001C0880F9A95EAF70E944B0B24
:10199000802F0E94620C183070F6D77081E001C071
:1019A000880FDA95EAF70E94440BC5CFC77081E033
:1019B00001C0880FCA95EAF7F6CF1092EF01809127
:1019C0000E01E4E6F1E0882361F080916E0287FF6A
:1019D00008C08EE1DF011D928A95E9F70E94C10AD5
:1019E000089586E0F7CFAAE2B0E0E9EFFCE00C94BE
:1019F00072208AE992E02091F100DC012D93CD0163
:101A0000B2E0823A9B07B9F780919B02833009F4D8
:101A100072C0B8F4813009F449C0823009F4B3C00F
:101A20008091E80083FF8BC280919A0290919B0283
:101A30009A3008F084C2E92FF0E0E25FFE4D0C948A
:101A400043208A3009F48EC08B3009F471C089308C
:101A500039F780919A02813219F780919E02909114
:101A60009F02009711F00297D9F68091E800877FD6
:101A70008093E8008091E80082FF38C09091F300E5
:101A80008091F200029731F48091F100813011F0E1
:101A9000863021F48091F100809375028091E800F6
:101AA0008B778093E8000E94EE02BACF80919A0271
:101AB000813A09F0B5CF8091E800877F8093E800F4
:101AC00080919E0290919F02892B61F460E286E7EB
:101AD00092E070E00E949A038091E8008B778093F7
:101AE000E8009ECF60E090E080E0F3CF8091980224
:101AF0008111C0CF95CF80919A02813A09F090CFA1
:101B000080919E0290919F02892B09F089CF80914C
:101B1000E800877F8093E8008091E80080FFFCCF99
:101B200080910E018093F1008091E8008E77B9CF0B
:101B300080919A02813209F073CF80919E02909138
:101B40009F02892B09F06CCF8091E800877F8093FA
:101B5000E8000E94EE0280919C0280930E010E9498
:101B6000DD0C5ECF80919A02813209F059CF8091CD
:101B7000E800877F8093E8000E94EE0280919D023A
:101B8000809374024DCF80919A02813A09F048CF38
:101B90008091E800877F8093E8008091E80080FFD3
:101BA000FCCF80917402BECF803899F0823809F062
:101BB000C6C180919E028F70873008F0C0C18093AB
:101BC000E9008091EB0085FB882780F91092E900FD
:101BD00006C0809196029091970291118260909137
:101BE000E800977F9093E8008093F1001092F10055
:101BF0008091E8008E779FC1882309F48DC18230DF
:101C000009F09DC180919C02811190C180919E023A
:101C10008F702FEF280F263008F091C18093E900D4
:101C20002091EB0020FF82C1933031F48091EB00D2
:101C300080628093EB007AC19091EB009061909369
:101C4000EB0021E030E001C0220F8A95EAF72093F3
:101C5000EA001092EA008091EB008860EACF8111DF
:101C60006EC110919C021F778091E3008078812BD8
:101C70008093E3008091E800877F8093E8000E94D2
:101C8000EE028091E80080FFFCCF8091E300806845
:101C90008093E30082E0111183E0809398024FC1AA
:101CA0008058823008F04BC120919C0230919D02F7
:101CB0002C3DE3E03E07A1F583E08A838AE2898335
:101CC0004FB7F894DE01139620E03EE051E2E32F97
:101CD000F0E050935700E49120FF03C0E295EF70CD
:101CE0003F5FEF708E2F90E0EA30C0F0C7968D9383
:101CF0009D932F5F243159F74FBF8091E800877F74
:101D00008093E8006AE270E0CE0101960E949A0397
:101D10008091E8008B778093E80011C1C096E7CFEF
:101D200080919E0290919F02432F55274330510589
:101D300009F44AC078F54130510509F47AC08BE5C1
:101D400090E0E4EFF3E04230510509F0F8C0209153
:101D5000E800277F2093E8002091A0023091A102A3
:101D60008217930708F49C0140E02115310509F022
:101D700065C0411163C08091E80082FDC9CF8091A8
:101D80009802882329F2853019F28091E80083FFB8
:101D9000F2CFBECF4132510509F43CC04232510569
:101DA00009F0CDC08330910508F0C9C0FC01EE0FE9
:101DB000FF1FED5AFE4F0190F081E02D805B9E4F9A
:101DC000DC018C9190E01AC0332721303105D1F02D
:101DD0002115310561F02230310509F0B0C0E1E68E
:101DE000F4E0E4918E2F90E0E1E6F4E007C0E5EA4C
:101DF000F4E0E4918E2F90E0E5EAF4E0009709F436
:101E00009EC0A5CFE1E7F4E0E4918E2F90E0E1E7FA
:101E1000F4E0F4CF8330910508F091C0880F991F4A
:101E2000FC01E75AFE4F0190F081E02D89E090E03F
:101E30008ECF82E190E0EFE4F4E089CF80919802C8
:101E4000882309F465CF853009F462CF8091E800DA
:101E500083FD5ECF8091E80082FD8DCF8091E80008
:101E600080FF83CF9091F3008091F200211531051E
:101E700019F08830910550F041E0089709F040E0F2
:101E80008091E8008E778093E8006FCF4491409373
:101E9000F1003196215031090196E8CF803809F0E0
:101EA0004EC08091E800877F8093E800809199027E
:101EB0008093F1009DCE811142C010919C0212309E
:101EC000F0F58091E800877F8093E80010939902F5
:101ED0000E94EE02112311F084E005C08091E3001E
:101EE00087FDFACF81E08093980242E061EC81E0C7
:101EF0000E940D0342E261EC84E00E940D0342E285
:101F000061EC82E00E940D0342E260EC83E00E94FB
:101F10000D038091980213C080919C02813079F466
:101F200081E0933009F080E0809397021092E900FD
:101F30008091E800877F8093E8000E94EE02809104
:101F4000E80083FF0AC08091E800877F8093E80063
:101F50008091EB0080628093EB00AA96E3E00C9402
:101F60008E200E94DD0C2FEF84E39CE02150804006
:101F70009040E1F700C0000088E19AE00FB6F894C5
:101F8000A895809360000FBE90936000FFCFA8E0FB
:101F9000B0E0EDECFFE00C9469208E010F5F1F4F65
:101FA00088E0F80111928A95E9F790E4E92E91E032
:101FB000F92E6801AA24A394B12CF70181917F0125
:101FC0008F3F09F446C0F894E82FE295EF70F0E0F7
:101FD00021A18F70A50102C0440F551F8A95E2F719
:101FE000CA01922F982B91A392A18095892382A355
:101FF000789400C0E4E4F1E021E030E0912C812C01
:1020000041914F3F09F468C0A42FA295AF70B0E092
:1020100090968C9190E04F7002C0959587954A9567
:10202000E2F780FD59C0C901882A992A220F331F7F
:1020300051E0E035F50721F7F701319780818F3FB7
:1020400011F00E94AB0580EA8A95F1F7F6019182C2
:102050008082F2E0CF0ED11C44E4E41641E0F406A5
:1020600009F0ABCF48E050E0B8018CEF91E00E945E
:10207000FF20892BA1F188E0F801ACEFB1E00190DD
:102080000D928A95E1F781E08093F4010E94280483
:102090009093F3018093F2018091F2019091F3010A
:1020A0000E940D040597F8F048E050E06CEF71E0F5
:1020B0008EE492E00E94FF2010E0892B51F088E02E
:1020C000ECEFF1E0AEE4B2E001900D928A95E1F719
:1020D00011E01092F40108C090E080E0A5CF80915B
:1020E000F4018111D9CF10E08091F901882359F1D1
:1020F0008091F7019091F8010E940D04893C9105AF
:1021000098F08091F5019091F60186309105CCF020
:1021100081E090E09093F6018093F5010E942804FD
:102120009093F8018093F7010E947308E091F50104
:10213000F091F601E730F10560F4E85EFE4D0C9495
:1021400043200196E7CF1092F6011092F5010E940C
:10215000730880910001882349F08091FA019091E1
:10216000FB01181619065CF45B9A5A98812F289681
:10217000ECE00C9485205B9AECCF5A98EACF5B9800
:102180005A9AF4CF68EE7EEF90E080E00E94E9205A
:1021900060E082E090E00E94CB2060E083E090E08D
:1021A0000E94CB201092F10160E084E090E00E9458
:1021B000CB2064E082E290E00E94CB2060E085E0EA
:1021C00090E00E94CB2060E086E090E00E94CB206F
:1021D0006FEF87E090E00E94CB2040E050E0BA0132
:1021E00088E090E00E94DD2060E08DE090E00E94B9
:1021F000CB2040E050E0BA0188E190E00E94DD2071
:1022000060E087E190E00E94CB2040E050E0BA011E
:102210008CE190E00E94DD2070E060E080E290E0E0
:102220000E94E92040E050E0BA0188E190E00E947D
:10223000DD2080E00E9479090E94920940E050E090
:10224000BA018FE090E00E94DD2040E050E0BA014A
:1022500083E190E00E94DD200895A5E0B0E0E3E393
:10226000F1E10C9464208C01FC0183819481892B21
:1022700031F08081918189238F3F09F0E6C5259651
:10228000E1E10C9480200E94DF09F82E682F8981FB
:102290009A810E943C0869817A818F2D0E94D10920
:1022A0007C01F8012281222309F4C1C590568115D1
:1022B000F0E29F0750F0905E811530E1930728F01F
:1022C000915C81159F4108F061C0C7019927AC015D
:1022D000445051094432510518F08B970E9780F401
:1022E000E0911602F0E0EE0FFF1FE55EFD4F8081EA
:1022F00091818F3F3FE7930719F001969183808387
:10230000C70182519F45409708F044C58FEF93E085
:102310000E94BD20811128C08EEEE80E57EA852E5E
:1023200099249394E1103CC01C821B824424439462
:102330004AE0342E7401FFEFEF1AFF0AC4010E9435
:10234000BD2089831A82882379F09FEF980F9330FC
:10235000A8F58A83498222E0820E911CC7010E945F
:10236000BD208B8381112BC08091CD01877009F432
:1023700086CFF8018281882309F481CF80916F0292
:1023800082FF7DCF82E00E94FB0A79CF90E080E05F
:10239000FFEFEF16F10411F008F099CFC70197CFC6
:1023A000811494E0990601F3C4010E94BD208111BB
:1023B00001C0EA94EFEF8E1A9E0AB4CF4701CE0116
:1023C00001967C01F7012081222309F4B3CF21304B
:1023D00009F047C091818281913031F4F2E0EF0E33
:1023E000F11C0E94620C07C0923049F422E0E20E18
:1023F000F11C0E94AE0B3FEFE31AF30AE3CF9330D8
:1024000031F432E0E30EF11C0E94550BF4CF94300E
:1024100021F08FEFE81AF80AEECF92E0E90EF11CF6
:1024200030E020E0B7016F5F7F4FF70141818053BB
:10243000990B8A30910550F021503109E0F28FE973
:102440009FE00197F1F700C00000F6CF329EF00147
:10245000339EF00D11249C012E0F3F1F842F7B0112
:10246000E1CFE22FF0E0EC50FE4F5490822F8695A2
:102470008695869590E0FC01EC51FE4F64902770A4
:10248000712C022E02C0759467940A94E2F7E1E081
:102490006E227724FC01EC52FE4FA490B12C022E48
:1024A00002C0B594A7940A94E2F7F1E0AF22BB24EE
:1024B000FC01EC53FE4FC490D12C02C0D594C794BC
:1024C0002A95E2F721E0C222DD246114710419F09B
:1024D00081EE0E94AE0BA114B10419F086EE0E94A9
:1024E000AE0B852D0E94620CA114B10419F086EE8A
:1024F0000E94550B6114710419F081EE0E94550B76
:10250000C114D10409F477CF8CE26BCF81E00E9433
:10251000330B0E94E20A28CF81E00E94EE0AF9CF35
:10252000222309F490C482E0F2CF019747C41092AD
:10253000F90181E08093000159C485EFE8168CE52C
:10254000F80609F469C008F463C0E6EFEE16ECE59E
:10255000FE0609F465C0222309F488C41092A4027F
:10256000F3E0EF16FDE5FF0608F061C02AEFE21682
:102570002CE5F20630F4C70182509C45449708F0E0
:1025800063C00E945E0A90936F0280936E02E2E144
:10259000EE16ECE5FE0609F476C108F0B4C029E0B9
:1025A000E2162CE5F20609F44CC108F077C085E08C
:1025B000E8168CE5F80609F434C108F061C0E3E0E0
:1025C000EE16ECE5FE0609F424C108F026C1809160
:1025D0006E02816022E0E2162CE5F20609F490C05A
:1025E00060916E02F0906F0284E090E00E94CB2038
:1025F0006F2D82E290E00E94CB200E94DD0CB4CED1
:1026000027E245EE65EE0FC426E241EE60EE0BC414
:1026100027E245EE64EE07C426E241EE62EE03C413
:1026200027E245EE66EEFFC328E241E0EBCF35EA54
:10263000E3163DE5F30609F4A4CFE0F491E6E916CC
:102640009DE5F90609F49DCF86E1E8168CE5F806CC
:1026500009F01AC48091EF018A7A91E009F490E0C0
:1026600090938201811139C189E20E94CA070E94B8
:102670006C0A7ACEC7018D5A9D45039728F781CF02
:1026800080916E02806237E0E3163CE5F306C1F10B
:1026900008F4D3C080916E02806432C09DE0E916D8
:1026A0009CE5F90609F4D7C0A0F480916E028E7FF4
:1026B000FBE0EF16FCE5FF0619F180916E028C60DD
:1026C0002CE0E2162CE5F206D8F080916E028D7FA8
:1026D00017C03FE0E3163CE5F30609F4CCC008F46C
:1026E000BEC090E1E9169CE5F90609F4C8C08091E6
:1026F0006E028F7BE1E1EE16ECE5FE0609F070CF8D
:1027000080936E026DCFFFEFEF16FCE5FF0609F434
:10271000C4C0D8F53AEFE3163CE5F30609F485C0EA
:10272000D0F494E1E9169CE5F90609F4C4C008F474
:10273000B0C0F5E1EF16FCE5FF0609F051CF80913E
:102740006E0282FB992790F921E0922790FB82F993
:1027500090FB83F9D5CF2CEFE2162CE5F20609F4B5
:1027600082C008F466C08DEFE8168CE5F80609F41F
:102770007EC080916F0283609EEFE9169CE5F906AA
:1027800009F02ECF80936F022BCFE1E6EE16EDE538
:10279000FE0609F49BC0A0F421E0E2162DE5F20646
:1027A00009F492C008F47DC060E082E0E8168DE58F
:1027B000F80609F015CF8EE090E00E94CB2010CFF4
:1027C0009DEAE9169DE5F90601F168F490916E0223
:1027D000892F8E7F90FF8160F5EAEF16FDE5FF06F9
:1027E00009F48ECFFDCE2EEAE2162DE5F20679F140
:1027F0003FEAE3163DE5F30609F0F2CE90916F0251
:10280000892F877F93FF8860BDCF80916F0288609A
:10281000B9CF80916E02826073CF80916E02846026
:102820006FCF80916E0288606BCF80916F02816064
:10283000A9CF80916F028260A5CF80916E028061E6
:102840005FCF0E94DD0C80916E02806859CF80912D
:102850006F02877F97CF80916E028B7F51CF8091DF
:102860006E02877F4DCF80916F028E7F8BCF8091DC
:102870006F028D7F87CF80916E028F7E41CF8091D6
:102880006E028F7D3DCF0E94DD0C80916E028F77AE
:1028900037CF80916E02837F33CF80916F028C7F20
:1028A00071CF80916F02982F909591708E7F892BB8
:1028B00090FB81F967CF0E94DD0C90916E02892F09
:1028C00097FB87F980581CCF61E075CF90916E021D
:1028D000892F8F7E94FF806113CF85E3C6CE85E379
:1028E000D0C20E94DD0C9FEFE4E3FCE09150E04099
:1028F000F040E1F700C000000E94FC0380916F02ED
:1029000082FB882780F991E089270E94170BF80144
:102910008281E080F180882309F445C0C7010E94CC
:10292000DF09D82E682FC7010E943C08B7018D2D02
:102930000E94D1090E9405067C01882EF801D280F0
:10294000B580B2943FE0B3228091CD018770C1F091
:10295000AD2CDD20B1F08F2D807F803421F080E21E
:102960008E0D883068F080916F0282FF09C082E08E
:102970000E94FB0A8091CD018770AA24A394811143
:10298000A12C9F2C92942FE09222FBE0F91508F4E1
:1029900079C0E92DF0E0E15EFE4D0C94432081E02A
:1029A000B4CF80E0B2CFC7010E940808D82EBECFB6
:1029B0002F2D2F70C22E8F2D807F19F0C29490EF93
:1029C000C922DD20B9F0CC2069F080E28E0D88307C
:1029D00010F0811009C08091EF01C82AC092EF0168
:1029E0000E946C0A8E2D4CC08091EE01C82AC092C4
:1029F000EE01F6CF8E2D0E94550BCC2009F442C07B
:102A000080E28E0D883010F0811004C08C2D0E9461
:102A1000980706C0C0948091EE01C822C092EE01D2
:102A20000E946C0A2FC03F2D3F70C32E8F2D807FD8
:102A3000803219F0C29480EFC822882089F081E0AA
:102A4000881609F468C0DD2009F472C0BB2009F4BF
:102A500068C0F801858180FFC5CF8F70858361C014
:102A600020916F0222FD35C0DD2069F1CC2039F0C4
:102A70008091EF01C82AC092EF010E946C0A80E0A9
:102A80000E94AE0B292D2850330B2430310510F451
:102A90000E946004AA2009F4F2CB8091CD0180FD50
:102AA000EECBF80112828595859585950E94330BB2
:102AB000C8010E942D118091CD0185958595859540
:102AC0000E94EE0ADCCB80E00E94550BCC20D1F2B4
:102AD0009DCFDD2099F09091F0018C2D892BB110C4
:102AE00003C00E944B0BCECFE1E0BE12FACF22FF13
:102AF000C9CF981739F28093F001C4CFB11006C046
:102B00000E9492078C2D0E94440BBCCFF1E0BF16AF
:102B100009F4B8CFF5CFDD2031F025E02B1508F40E
:102B2000B1CF8C2DDECF34E03B1508F4ABCFEACF2C
:102B3000BB2041F3F9E38F1209C02FEF37EE83E09A
:102B4000215030408040E1F700C000008E2D0E94EF
:102B5000550B98CF8F2D86958695837061F08130C7
:102B600009F090CFC7019370D11002C090E080E0CF
:102B70000E94340487CFC7019370D11002C090E047
:102B800080E00E944A047ECF8E2DDD2029F00E9435
:102B90004F050E946D0476CF0E949404FACF8F2DCA
:102BA000837091F5D1106ECF4E2D429546954770AA
:102BB000440F440F8E2D8F70042E01C0880F0A948D
:102BC000EAF72E2D2071E4FE07C02FE030E001C0AF
:102BD000220F4A95EAF720953F2D369536953370AA
:102BE000323069F050F44091F101313029F0822BFC
:102BF00084230E943F0B46CF842B822BFACF282BB5
:102C00008091F1018227F5CF8695DD2011F08F2D7F
:102C10008170882309F436CF4E2D42954695477032
:102C2000440F440F8E2D8F70042E01C0880F0A941C
:102C3000EAF72E2D2071E4FE07C02FE030E001C03E
:102C4000220F4A95EAF720953F2D36953695337039
:102C5000323069F050F44091A502313029F0822BD6
:102C600084230E94DD0A0ECF842B822BFACF282BDF
:102C70008091A5028227F5CF9F2D9F70F92EDD2030
:102C800029F0892F0E94330B8E2D2BCF8E2D0E9481
:102C9000440B8F2D0E94EE0AF5CE8E2DE2EF8E169C
:102CA000B1F1E81570F0F0EF8F16D1F021EF821638
:102CB00091F0DD2009F45EC0B11094CE8F2D8F719C
:102CC0002AC033EF831651F194EF8912F2CF80912D
:102CD0006F0282FD2FC08F2D8F71DD20D9F21BC0B6
:102CE000DD2081F0E4E0EB1508F4CCCE2F2D2F7120
:102CF00081E090E001C0880F2A95EAF79091A50243
:102D00008927AFCFF5E0FB1508F4BCCEEFCF8F2DB0
:102D10008F71D110BFCF0E94330BB4CE80E0DD2085
:102D200009F49FCF9F2D9F7181E001C0880F9A9574
:102D3000EAF797CFDD2099F02F2D2F71F22E822FF9
:102D40000E94330B80916F0282FF07C038E0F39E30
:102D5000C001112483608093CD018F2DDCCF81E0F1
:102D60000E94FB0A81E08B1508F08CCE82E00E9465
:102D7000FB0A88CEBB2059F0893309F0E7CE9FEFDC
:102D8000E7EEF3E09150E040F040E1F7DDCE8F2D2B
:102D90008F7180CFF0E1EF16FFE5FF0609F4B6CBA7
:102DA00031E1E3163FE5F30609F4BACB8091FA016D
:102DB0009091FB01222309F4B8CB01969093FB017B
:102DC0008093FA018091FA019091FB0197FF04C072
:102DD0001092FB011092FA0180911102853608F4DD
:102DE000A6CB81E08093F9011092000183EFE816F1
:102DF0008CE5F80609F408CC08F09FCBE8EDEE1658
:102E0000ECE5FE0609F4FCCBF9EDEF16FCE5FF0658
:102E100009F40ACC37EDE3163CE5F30609F09BCB49
:102E200026E241EE61EEC8010E94800C9DCA80E15D
:102E3000E8168FE5F80609F46FCB91E1E9169FE5F6
:102E4000F90609F0B3CF82E068CB85E0DE01119688
:102E500001900D928A95E1F7F801228189819A818A
:102E6000211111CA0E940808F82E15CAF6E1EF16C2
:102E7000FCE5FF0609F04BCD8091820181112FCD39
:102E800089E20E949F07F3CB2AE5E2162DE5F206C0
:102E900009F485CD78F4E1148CE5F80609F421CD28
:102EA0009EEDE9169CE5F90609F031CD0E94C210AD
:102EB0000E94B10FECE5EE16EDE5FE0609F41ECD1D
:102EC00008F46FCD27EAE2162DE5F20689F31FCD4F
:102ED0001F93CF93DF9380919A01807F09F049C0BF
:102EE00080919701882309F444C08091CC01D0914E
:102EF0009B016091950170919601A0919801B0910C
:102F00009901C62FC72316E0D81799F190E01097C2
:102F100011F0CF3F19F401968770F6CF189F9001FA
:102F2000199F300D1124F901E456FE4F41814713DA
:102F3000F2CF40814613EFCF42814111ECCF438164
:102F400054814A1B5B0B483C510528F780919A013C
:102F50008F70806180939A01F901EF55FE4F808157
:102F60008F708061808385E991E00E942D110E941D
:102F7000FE07DF91CF911F910895A1E1B0E0E3EC4E
:102F8000F7E10C946B208C0185E0F801DE011D96C1
:102F900001900D928A95E1F7F801E28085E9A82E6B
:102FA00081E0B82E609198017091990161157105C9
:102FB00009F426C19091950140919601892F8423AF
:102FC0008F3F09F41DC120813181C380D480F090EE
:102FD0009701F601E61BF70BFF2009F4DCC0809196
:102FE0009A01582F507FE83CF10508F09FC051111D
:102FF0006BC0FE2C431314C0921312C0E11010C01A
:103000008F70806180939A01C5010E942D1180917B
:103010009A01F80185838F2D6196EAE00C94872050
:10302000C114D10429F0822F83238F3F09F003C1FB
:1030300080E0F82FF170DF2E80FF3CC08091CC0142
:1030400040919B0156E0841315C02D873E878D85E6
:103050009E850E940E0A292F22952F702230F0F0B3
:10306000243018F59F70F1F0F8019581907FD1F42C
:10307000D12C1EC090E0589FF001599FF00D1124F3
:10308000E456FE4F6181361306C06081261303C0EB
:103090006281E6120FC001968770D5CF9F7011F044
:1030A000882331F3805E883018F3C8010E942D1107
:1030B000FD2CB1CFEE2009F4AECF80919A01816052
:1030C00080939A01F12CA7CF431306C0921304C03A
:1030D000F801EE2009F479C0C8010E941B0A882378
:1030E00009F1EE20F9F080919A01803270F0209180
:1030F00095013091960138872F831986DB86CA8621
:103100008C87CE0107960E942D1186E0F801A5E973
:10311000B1E001900D928A95E1F70E946817FF24B3
:10312000F39479CFC8010E942D11F9CF51110AC033
:1031300085E991E00E942D1186E0F50111928A95B2
:10314000E9F7C0CF43130FC092130DC0E1100BC0BD
:10315000F8018583C8010E942D1186E0F5011192C6
:103160008A95E9F758CFC8010E941B0A8823D1F23B
:10317000EE20C1F280919A01803238F220919501BF
:10318000309196013A8329831B82DD82CC828E8323
:10319000CE010196B8CFE83CF105F8F6FE2CEE2002
:1031A00009F243131FC092131DC080919A0180FD44
:1031B00010C0982F907F69F0F8018583903F31F01F
:1031C000982F907F905F8F70892B8583C8010E9414
:1031D0002D1186E0F801A5E9B1E001900D928A95E4
:1031E000E1F719CFC8010E941B0A81118ECF80918F
:1031F0009A01816080939A01C8010E942D110BCF22
:10320000EE2009F48FCFC8010E941B0AF82E8823F4
:1032100009F488CF86E0F801A5E9B1E001900D92AC
:103220008A95E1F780919501909196010E940E0A8E
:103230000E946817F0CE81E08E25FBCEA7E1B0E0BA
:10324000E4E2F9E10C9472204B8B5C8B6D8B7E8BEE
:103250008F8B61111092EE011A8A198A85E0FE01A6
:103260007396DE011D9601900D928A95E1F786E036
:10327000FE013D96DE01179601900D928A95E1F7C9
:10328000CE0107960E94BD17882359F016E0809161
:10329000CC0190919B01891343C06796E3E00C94A5
:1032A0008E2086E0FE013796DE01119601900D9288
:1032B0008A95E1F78A859B85892B41F38F819885D3
:1032C00089238F3F19F320919B0130E0C9010196BA
:1032D000877099274091CC014817190671F40E9414
:1032E000DD0C10929B011092CC0186E0E5E9F1E043
:1032F000DF011D928A95E9F7C9CF96E0929FD00130
:10330000939FB00D1124A456BE4FFE01319601903B
:103310000D929A95E1F780939B010E94FE07B6CF2C
:10332000819FC001112484569E4F0E94BD1788239F
:1033300009F4B3CF8091CC0190E001968770992772
:103340008093CC01A4CF1F920F920FB60F9211243D
:103350002F933F934F935F936F937F938F939F939D
:10336000AF93BF93CF93DF93EF93FF93D091E90097
:10337000DF708091EC00C82FC17080FDC0E8109212
:10338000E9008091F000877F8093F00078940E949C
:10339000F30C1092E9008091F00088608093F000B7
:1033A000CD2BCF70C093E900FF91EF91DF91CF91CA
:1033B000BF91AF919F918F917F916F915F914F914D
:1033C0003F912F910F900FBE0F901F9018951F9255
:1033D0000F920FB60F9211242F933F934F935F9349
:1033E0006F937F938F939F93AF93BF93EF93FF93CD
:1033F0008091E10082FF09C08091E20082FF05C058
:103400008091E1008B7F8093E1008091DA0080FF62
:1034100024C08091D80080FF20C08091DA008E7F88
:103420008093DA008091D90080FF9DC080E189BD42
:1034300082E189BD09B400FEFDCF81E0809398024E
:1034400080917302811109C00E9474020E943F039F
:103450008091E20084608093E2008091E10080FF2F
:1034600017C08091E20080FF13C08091E2008E7F40
:103470008093E2008091E20080618093E20080917D
:10348000D80080628093D80019BC85E080939802B0
:103490008091E10084FF2BC08091E20084FF27C06F
:1034A00080E189BD82E189BD89B5982F917080FF47
:1034B000FBCF8091D8008F7D8093D8008091E10070
:1034C0008F7E8093E1008091E2008F7E8093E20006
:1034D0008091E20081608093E200809199028823CC
:1034E00009F447C084E0809398028091980280910B
:1034F000E10083FF27C08091E20083FF23C0809119
:10350000E100877F8093E10082E08093980210922F
:1035100099028091E1008E7F8093E1008091E2002A
:103520008E7F8093E2008091E20080618093E200D0
:1035300042E060E080E00E940D038091F00088602E
:103540008093F000FF91EF91BF91AF919F918F9188
:103550007F916F915F914F913F912F910F900FBE8F
:103560000F901F90189519BC109298021092730238
:1035700074CF8091E30087FD93E090939802B5CFDC
:1035800078941F921FB61F9211248F939F93AF932D
:10359000BF9380916A0290916B02A0916C02B091EE
:1035A0006D020196A11DB11D80936A0290936B027A
:1035B000A0936C02B0936D02BF91AF919F918F91D8
:1035C0001F901FBE1F9018951F921FB61F921124A7
:1035D0008F939F93AF93BF9380916902811113C022
:1035E00080916A0290916B02A0916C02B0916D0281
:1035F0004196A11DB11D80936A0290936B02A09326
:103600006C02B0936D02BF91AF919F918F911F900B
:103610001FBE1F901895CDB7DEB7AA970FB6F894C6
:10362000DEBF0FBECDBF85B7806885BF85B7806818
:1036300085BF84B7877F84BF0FB6F894A895809123
:103640006000886180936000109260000FBE80E887
:1036500090E00FB6F89480936100909361000FBEE4
:1036600089EA95E090936101809360010E94740261
:103670000E943F038091E20084608093E20078948E
:10368000809198028823A1F01091E9001F70909119
:10369000EC00892F817090FD80E8182B1092E900D2
:1036A0008091E80083FD0E94F30C1F701093E900E5
:1036B00082E084BD93E095BD9AEF97BD80936E0044
:1036C0000E94450A811102C00E94920982E30E9471
:1036D000AB0584E30E94AB0586E30E94AB0585E35E
:1036E0000E94AB0504E411E0E0E5EE2EE1E0FE2EE1
:1036F000D8018D918D018F3F11F00E94AB05E0162E
:10370000F106B1F788E0EEE4F2E0DF01282F1D9228
:103710002A95E9F7ECEFF1E0DF011D928A95E9F7D0
:1037200090E080E00E94C520883E9E4F21F40E94D8
:10373000450A811102C00E94C21082E090E00E94FE
:10374000BD20809306020E945E0A90936F028093D0
:103750006E020E94C70FEFE3FCE93197F1F700C05A
:1037600000000E94C70F80914E0280FF08C06FEFDB
:103770007FEF90E080E00E94E9200E94FC0383E05C
:1037800090E00E94BD200E943F0B539A529A0E94E3
:10379000730881E091E0909366028093650274E67D
:1037A000472E512C612C712C8091980200E112E17E
:1037B000853009F490C00E94C70F57E0A52E52E053
:1037C000B52E6EE4862E62E0962ED401F50121918D
:1037D00031918D919D914FE052E04E175F0709F4B2
:1037E00084C02817390799F3312CD4010D911D910C
:1037F0004D01F501C190D1905F01C016D10659F17C
:10380000C026D126212CEE24E394F12CC7018C2173
:103810009D21892BB1F02EA23FA221E0C701802378
:103820009123892B09F420E028A70E9428048160B5
:10383000782F9AA789A74EA15FA168A58AA50E94A3
:103840001E192394EE0CFF1CFCE02F12DFCFF501B4
:10385000329711830083339424E03212C6CF0E9442
:103860001C0465C080919802843021F11092690295
:1038700048E150E080E40FB6F894A89540936000CA
:103880000FBE8093600083B7817F846083BF83B75E
:10389000816083BF7894889583B78E7F83BF0FB68E
:1038A000F894A895809160008861809360001092E0
:1038B00060000FBE80919702882369F00E94C70FB5
:1038C000EEE4F2E081919191892B09F05EC392E0E0
:1038D000E635F907B9F780919802853009F4C2CF2F
:1038E0000E94DD0C0E94600466CF2817390709F09A
:1038F0007BCF0E9428048C018091040290910502E4
:1039000008171907A1F08FEF89A38AA31BA20E94B1
:1039100028048160782F9DA38CA349A15AA16BA193
:103920008DA10E941E191093050200930402C090FD
:103930001B02D0901C020D2C000CEE08FF08809199
:103940000D0190E0EBE1F2E021E030E032968217E9
:1039500093070CF0B4C18091170290911802A091C6
:103960001902B0911A022FB7F89480906A029090D1
:103970006B02A0906C02B0906D022FBF881A990A5A
:10398000AA0ABB0A10910D0149EC84169104A10406
:10399000B10414F18091160290E0019669E170E0A3
:1039A0000E94EE1F80931602880F991FFC01E55EAE
:1039B000FD4F11821082812F183108F087E18F5F4F
:1039C00080930D010E941C046093170270931802EB
:1039D0008093190290931A0252E0C516D104E104B3
:1039E000F1040CF479C1A0E6BAEEA70196010E9499
:1039F00050206B017C0188EC189F90011124032E4C
:103A0000000C440B550B280D391D4A1D5B1DA5E00C
:103A1000B0E00E9450209B01AC01C701B6010E949A
:103A2000022049015A0191EF89169104A104B104C1
:103A30002CF090EF892E912CA12CB12C80911202A8
:103A400090911302A0911402B09115022FB7F8942F
:103A5000C0906A02D0906B02E0906C02F0906D0210
:103A60002FBFC81AD90AEA0AFB0AA5E6CA16D1046A
:103A7000E104F10484F00E941C046093120270932C
:103A80001302809314029093150280911102809387
:103A9000100280920F0210911002A0910F02A11B40
:103AA000BB0BA70196010E945B20A30192010E941B
:103AB0002420120F1093110286E0EDE5F2E0DE0102
:103AC000119601900D928A95E1F710925F02109283
:103AD000600210926102109262028B819C81892B9C
:103AE00009F44AC080915B0290915C020E940D042F
:103AF0009C0190915702992309F46BC2253131053D
:103B0000D8F19F3F19F09F5F909357021B811123BB
:103B100059F00E942F059FEF11160CF491E0899F38
:103B2000802D112480935F021C81112359F00E9483
:103B30002F059FEF11160CF491E0899F802D112421
:103B40008093600230915F023323B1F020916002D4
:103B5000222391F045EB3403C0011124992309F489
:103B6000BFC090935F0255EB2503900111243323CE
:103B700009F4BAC0309360028D819E81892B09F4CB
:103B80004AC08091590290915A020E940D049C01F2
:103B900090915602992309F417C221353105D8F1C5
:103BA0009F3F19F09F5F909356021D81112359F09A
:103BB0000E940D059FEF11160CF491E0899F802D56
:103BC0001124809361021E81112359F00E940D057A
:103BD0009FEF11160CF491E0899F802D11248093A2
:103BE0006202309161023323B1F0209162022223FC
:103BF00091F045EB3403C0011124992309F478C0F6
:103C00009093610255EB250390011124332309F4AD
:103C100073C03093620246E050E0BE016F5F7F4F99
:103C20008DE592E00E94FF20892B61F480915F0274
:103C300090916002892B90916102892B9091620290
:103C4000892B11F00E946D0486E0FE013196ADE5EE
:103C5000B2E001900D928A95E1F70E946004909184
:103C60004D02891721F080934D020E941C0480911F
:103C70009802843009F098CD83E08093E900809128
:103C8000E80082FF91CD8091E80090E085FF05C0BB
:103C90000E9493028823A1F191E08091E8008B7744
:103CA0008093E800992309F47FCDE981E150E33165
:103CB00008F0B3C0F0E0E55DFE4D0C944320408178
:103CC0005181052E000C660B770BC40ED51EE61E27
:103CD000F71E2F5F3F4F3ACE812C912C5401AECE70
:103CE00081E080935F023FCF81E08093600244CF08
:103CF00081E08093610286CF81E0809362028BCF66
:103D000080E2E82EF12C8E010F5F1F4F8091E800BA
:103D100085FD0AC08091E8008B778093E8000E94BF
:103D20009302882399F3B8CF8091F100D8018D9345
:103D30008D01B1E0EB1AF10849F7AECF1A828AE0A3
:103D40008B8336C08A81823009F435C1833061F0BB
:103D5000813009F062C00E941C040E9449206B83DC
:103D60007C838D839E8324C080914E0290914F026C
:103D70009827892798279C838B8380915002909164
:103D800051029827892798279E838D83809152021C
:103D90009091530298278927982798878F8380913D
:103DA0005402909155029827892798279A878987E6
:103DB00080919802843009F0F7CC1091E9001F70CF
:103DC0009091EC00892F817090FD80E8182B82E0A3
:103DD0008093E9008091E80080FF0DC050E040E052
:103DE00060E270E0CE0101960E94C4028091E8007A
:103DF0008E778093E8001F701093E900D5CC8A81FC
:103E0000823059F46B817C818D819E810E94492092
:103E100086E290E00E94CB20CBCF8FEF8983C8CF82
:103E20004C816B818A810E94A20998278927982753
:103E30009E838D83BDCF2D813E813227232732275C
:103E40004C816B818A810E941B09B2CF0E9441097B
:103E5000AFCF80E18A83ACCF82E08A8389E570CFDF
:103E60000A811B81102701271027FE0131966F015F
:103E7000EC80AF014E0D511D7A01C80189559E4F4E
:103E8000EC14FD0409F494CF093552E0150758F4F9
:103E90000E94BD20D60114968C930F5F1F4FFFEF39
:103EA000CF1ADF0AEACFF6011482F7CF0A811B810D
:103EB000102701271027AE014F5F5F4F6A01EC808A
:103EC000E00EF12EF11CC80189559E4FE016F10657
:103ED00009F46ECF093552E0150728F4D60114967F
:103EE0006C910E94CB20BFEFCB1ADB0A0F5F1F4FF4
:103EF000EACF0E940B095CCF84E0ACCF0A811B8122
:103F0000102701271027FE0131966F01EC80AF01C9
:103F10004E0D511D7A01C8018796CE14DF0409F4B5
:103F200047CF003851E0150758F40E94BD20D60154
:103F300014968C930F5F1F4FFFEFCF1ADF0AEBCF62
:103F4000F6011482F7CF0A811B8110270127102761
:103F5000AE014F5F5F4F6A01EC80E00EF12EF11C65
:103F6000C8018796E016F10609F422CF003851E027
:103F7000150728F4D60114966C910E94CB20BFEF50
:103F8000CB1ADB0A0F5F1F4FEBCF09BD19BD09B478
:103F900000FEFDCF8091D8008F7D8093D800809166
:103FA000E00082608093E0008091E00081FDFCCF22
:103FB0000E94DD0C90CC86E290E00E94BD201B8226
:103FC0001C821D828E83F4CE2B30310508F0EACDA1
:103FD00022CE2B30310508F096CDCECD97FB072EA3
:103FE00016F4009407D077FD09D00E949A2007FCB0
:103FF00005D03EF4909581959F4F089570956195F9
:104000007F4F0895A1E21A2EAA1BBB1BFD010DC014
:10401000AA1FBB1FEE1FFF1FA217B307E407F50778
:1040200020F0A21BB30BE40BF50B661F771F881F54
:10403000991F1A9469F760957095809590959B01EA
:10404000AC01BD01CF010895052E97FB1EF400942D
:104050000E943B2057FD07D00E94022007FC03D09E
:104060004EF40C943B2050954095309521953F4F50
:104070004F4F5F4F089590958095709561957F4F54
:104080008F4F9F4F0895EE0FFF1F0590F491E02D85
:10409000099469279627692778278727782708951D
:1040A0000E94AE20A59F900DB49F900DA49F800DFF
:1040B000911D11240895B7FF0C9450200E945020A8
:1040C000821B930B08952F923F924F925F926F92B3
:1040D0007F928F929F92AF92BF92CF92DF92EF9298
:1040E000FF920F931F93CF93DF93CDB7DEB7CA1B19
:1040F000DB0B0FB6F894DEBF0FBECDBF09942A8844
:10410000398848885F846E847D848C849B84AA84EB
:10411000B984C884DF80EE80FD800C811B81AA8178
:10412000B981CE0FD11D0FB6F894DEBF0FBECDBF43
:10413000ED010895AA1BBB1B51E107C0AA1FBB1FBD
:10414000A617B70710F0A61BB70B881F991F5A9523
:10415000A9F780959095BC01CD010895A29FB0016B
:10416000B39FC001A39F700D811D1124911DB29FAB
:10417000700D811D1124911D0895F999FECF92BDF6
:1041800081BDF89A992780B50895A8E1B0E042E092
:1041900050E00C94F120262FF999FECF92BD81BDFD
:1041A000F89A019700B4021639F01FBA20BD0FB675
:1041B000F894FA9AF99A0FBE08950396272F0E9451
:1041C000CC200E94CB20252F0E94CC20242F0C94A1
:1041D000CC200196272F0E94CC200C94CB20DC0110
:1041E000CB01FC01F999FECF06C0F2BDE1BDF89A02
:1041F000319600B40D9241505040B8F70895FB013C
:10420000DC0104C08D910190801921F4415050408F
:10421000C8F7881B990B0895F894FFCFD40DFC0DB7
:104220009F0FFC0D9F0F2F0E500E9F0F4E0F5B0F19
:10423000A710BB10BD10BB10BD10BB10BD10D81413
:10424000D81413151315AA15C41542154215CF1508
:104250003C164D164D169E1EA21EFF1E101F1B1F44
:10426000261F0D1F0D1F0D1F0D1F0D1F291F2C1F9A
:0C427000301F561F791F7C1F7E1FA31FEC
:10427C0001F903CB08AA08A508A008F803010181DD
:10428C008283E200E900EA00B500B600B700CD0079
:10429C008301CC008A0192019401210223022402A1
:1042AC002502260227022A02B300B4006F00700018
:1042BC00323436359190946697C63331F7F6F5F46F
:1042CC004022B684016201AC0006041F043F0400C6
:00000001FF
